:020000042001D9
:100000009711FF5F9381017A97020000938282012A
:100010007390523093021000638402007350107C7E
:100020009702000093824212739052301701FFDF53
:10003000130141FD631601001731FF5F1301816C4D
:10004000732540F181421723FFDF1303A35B137174
:1000500001FF6385A2001A918502D5BF97000000B9
:1000600093802008638300008290732540F18145CE
:100070000146CD209700FFDF9380C0F86383000026
:100080008290970200009382C20073905230032343
:100090000000F5BF000000008280A14673B3063067
:1000A0009302400063C555001376350011CA230042
:1000B00005000505FD15E347B0FE7310033082808F
:1000C000232005001105F115E34EB0FC7310033039
:1000D0008280232003001103E34D73FE8280068497
:1000E0009702FFDF938202F2638C02049702FFDF24
:1000F000938242F1F32740F1A14673B006300A83A0
:100100009723FFDF938303508A9363037300D137F0
:10011000639857021703FF5F1303C3EE9713FF5F44
:10012000938343ED630373006D371703FFE71303F6
:1001300063ED9703FFE79383E3EC63037300513FA1
:10014000A2808280F322203473231034F3233034CE
:10015000D5BF828006849711FF5F9381A1649302CB
:1001600000006311550E97A20000938222E417034A
:10017000FF5F130323E99713FF5F9383A3E7638C68
:100180006200635A730003A5020091022320A300BA
:100190001103E34A73FE971200009382221E170395
:1001A000FFE7130323E69703FFE79383A3E5638C3D
:1001B0006200635A730003A5020091022320A3008A
:1001C0001103E34A73FE0F100000971200009382A0
:1001D000E21A1703FF5F1303E3E29703FF5F9383C2
:1001E00063E2638C6200635A730003A5020091020C
:1001F0002320A3001103E34A73FE0F10000017131E
:10020000FF5F130323DF938301966357730023205B
:1002100003001103E34D73FE1712FF5F130282DD2B
:1002200011C20296177500001305854BEF70E0466A
:10023000EF70404E177500001305056EEF70E04536
:10024000EF70A0683937FD5673B0463073B046344E
:10025000F3271030372704007D8F09C773B036307D
:1002600073B02630370704007D8F19C373B00618AA
:100270003707010013078702F98F89CBF327003076
:100280000967D98F7390073073503000F32710300F
:1002900037072000F98F99C7F327003093E707202D
:1002A000739007300545970500009385654817064C
:1002B0000000130626483120EF70803FA280828024
:1002C0008280411106C2F32240F1130300006385CE
:1002D000620073005010F5BFEF10800A9240410198
:0202E00082801A
:0C02E800F4020120180301200C03012087
:1002F40037150080832705F6F1659385052003A350
:100304000700130505F60283370500801305055918
:100314006F80106541114AC03709008026C29304DA
:10032400095922C4C04006C611C41C4048408297E3
:10033400004465FC9C40B725F40093850540DC43EC
:10034400130509598297804411C41C404840829780
:10035400004465FCB2402244924402494101828037
:100368003D3D3D3D3D3D3D3D3D3D3D3D3D3D3D3DB5
:100378003D3D3D3D3D3D3D3D3D3D000023000000F0
:100388006B657970616972206379636C65730000CD
:1003980025733A0A00000000656E6361707320637C
:1003A80079636C6573000000646563617073206332
:1003B80079636C65730000006E7474206379636CF4
:1003C80065730000706F6C795F626173656D756C41
:1003D8005F6F70745F31365F3332206379636C65A9
:1003E80073000000706F6C795F626173656D756C86
:1003F8005F6163635F6F70745F33325F33322063B2
:1004080079636C6573000000706F6C795F6261736B
:10041800656D756C5F6163635F6F70745F33325FC6
:100428003136206379636C6573000000696E766EFF
:100438007474206379636C65730000003031323363
:10044800343536373839000001000000000000005C
:1004580082800000000000008A8000000000008008
:1004680000800080000000808B80000000000000F9
:1004780001000080000000008180008000000080F2
:1004880009800000000000808A00000000000000D1
:1004980088000000000000000980008000000000C3
:1004A8000A000080000000008B800080000000002F
:1004B8008B000000000000808980000000000080A0
:1004C800038000000000008002800000000000801F
:1004D80080000000000000800A800000000000008A
:1004E8000A000080000000808180008000000080F9
:1004F80080800000000000800100008000000000F3
:100508000880008000000080030000000100000057
:1005180004000000010000000500000009000000C0
:1005280002000000060000000500000003000000B3
:100538000500000008000000090000000700000096
:100548000900000003000000020000000300000092
:10055800080000000400000006000000020000007F
:100568000600000004000000030000000300000073
:10057800080000000300000002000000070000005F
:100588000900000005000000000000000000000055
:100598000000000000000000000000000000000053
:1005A8000000000000000000000000000000000043
:1005B8000000000000000000000000000000000033
:1005C8000000000000000000000000000000000023
:1005D8000000000000000000000000000000000013
:1005E8000000000000000000232D302B2000000038
:1005F800686C4C0065666745464700003031323309
:100608003435363738394142434445460000000006
:100618003031323334353637383961626364656670
:1006280000000000000102020303030304040404A1
:100638000404040405050505050505050505050566
:100648000505050506060606060606060606060646
:100658000606060606060606060606060606060632
:100668000606060607070707070707070707070716
:100678000707070707070707070707070707070702
:1006880007070707070707070707070707070707F2
:1006980007070707070707070707070707070707E2
:1006A80007070707080808080808080808080808C6
:1006B80008080808080808080808080808080808B2
:1006C80008080808080808080808080808080808A2
:1006D8000808080808080808080808080808080892
:1006E8000808080808080808080808080808080882
:1006F8000808080808080808080808080808080872
:100708000808080808080808080808080808080861
:100718000808080808080808080808080808080851
:100728000808080834070120000000006C696267A7
:100738006C6F7373000000009C790120887B012096
:10074800987A01200000000000000000227B0120B0
:10075800527B01209C7A0120027A0120C07B012073
:10076800267C0120000000000000000000000000BE
:100778000000000000000000000000000000000071
:1007880000000000067A01207279012000000000B4
:10079800000000000000000000000000428101206D
:1007A8005681012056810120568101202E81012089
:1007B8005681012056810120568101201081012097
:1007C8005681012056810120568101205681012041
:1007D8001081012010810120108101201081012049
:1007E8001081012010810120108101201081012039
:1007F8001081012010810120108101201081012029
:100808001081012010810120108101201081012018
:100818002C8201205A8201205A820120368201202E
:100828005A8201205A8201205A82012040820120E6
:100838005A8201205A8201205A8201204C820120CA
:100848005A8201205A8201205A8201205A820120AC
:100858001E8201201E8201201E8201201E8201208C
:100868001E8201201E8201201E8201201E8201207C
:100878001E8201201E8201201E8201201E8201206C
:100888001E8201201E8201201E8201201E8201205C
:1008980086820120B4820120B48201209082012046
:1008A800B4820120B4820120B48201209A820120FE
:1008B800B4820120B4820120B4820120A6820120E2
:1008C800B4820120B4820120B4820120B4820120C4
:1008D80078820120788201207882012078820120A4
:1008E8007882012078820120788201207882012094
:1008F8007882012078820120788201207882012084
:100908007882012078820120788201207882012073
:10091800010000000300000004000000207E012008
:10092800327E01204E7E0120E0810120907E012050
:100938009A7E01209C8101209E7E0120A27E0120BA
:10094800D27E0120027F0120367F012072810120A2
:100958004C7F01205E7F0120647F01206C7F012095
:10096800EE7F0120A6810120FA7D01200000000011
:10097800000000000000000000000000728001205C
:10098800000000005E8201200482012000000000B7
:10099800000000000000000000000000000000004F
:1009A8000000000000000000000000001C7E012084
:1009B800000000000000000000000000000000002F
:1009C80000000000488F0120000000000000000027
:1009D800000000000000000000000000000000000F
:1009E800088C012000000000908E0120EA8E012072
:1009F80000000000000000005C8E01201C8E012019
:100A0800E68B0120C28B01200000000000000000DE
:100A18000000000000000000828C0120E08C012012
:100A2800408D01206E8D012064910120CA91012022
:100A3800909201200100000020000000001BB70078
:100A480000366E01010000001F00000003000000D6
:100A58003F000000010000002000000000366E0189
:100A6800006CDC02030000001F0000000200000010
:100A78003F0000000100000010000000808D5B00B6
:100A8800001BB700000000001F000000030000006A
:100A98003F0000000100000010000000001BB7002C
:100AA80000366E01010000001F0000000200000077
:100AB8003F000000010000001000000000366E0139
:100AC800006CDC02030000001F00000002000000B0
:100AD8001F0000000100000008000000808D5B007E
:100AE800001BB700000000001F000000030000000A
:100AF8001F0000000100000008000000001BB700F4
:100B080000366E01010000001F0000000200000016
:100B18001F000000010000000800000000366E0100
:100B2800006CDC02030000001F000000020000004F
:100B38000F0000000100000004000000808D5B0031
:100B4800001BB700000000001F00000003000000A9
:100B58000F0000000100000004000000001BB700A7
:100B680000366E01010000001F00000002000000B6
:100B78000F000000010000000400000000366E01B4
:100B8800006CDC02030000001F00000002000000EF
:100B9800070000000100000002000000808D5B00DB
:100BA800001BB700000000001F000000020000004A
:100BB8000F0000000100000002000000001BB70049
:100BC80000366E01010000001F0000000100000057
:100BD8000F000000010000000200000000366E0156
:100BE800006CDC02030000001F0000000100000090
:100BF800070000000200000001000000808D5B007B
:100C0800001BB700000000001F00000001000000EA
:100C1800070000000200000001000000001BB700F0
:100C280000366E01010000001F00000001000000F6
:100C380003000000020000000100000000366E0101
:100C4800006CDC02030000001F000000030000002D
:100C5800FFFFFFFF0400000001000000808D5B0023
:100C6800001BB700000000001F0000000300000088
:100C7800000000000400000001000000001BB70095
:100C880000366E01010000001F0000000300000094
:100C9800FFFFFFFF040000000100000000366E01A6
:100CA800006CDC02030000001F00000002000000CE
:100CB800FFFFFFFF0600000001000000808D5B00C1
:100CC800AAC2A200000000002300000001000000EA
:100CD800020000000600000001000000AAC2A200F5
:100CE800001BB70000000000170000000300000010
:100CF800FFFFFFFF0600000001000000001BB70017
:100D08000024F400010000002F0000000300000090
:100D1800FFFFFFFF06000000010000000024F400B0
:100D280080A8120101000000170000000200000066
:100D3800FFFFFFFF060000000100000080A812016D
:100D48005585450102000000230000000200000054
:100D5800FFFFFFFF0800000001000000808D5B001E
:100D6800001BB700000000001F0000000300000087
:100D7800FFFFFFFF0800000001000000001BB70094
:100D880000366E01010000001F0000000200000094
:100D9800FFFFFFFF080000000100000000366E01A1
:100DA800006CDC02030000001F00000001000000CE
:100DB800FFFFFFFF0A00000001000000808D5B00BC
:100DC800007C9200000000002700000003000000E3
:100DD800FFFFFFFF0A00000001000000007C9200F6
:100DE800001BB70000000000130000000200000014
:100DF800FFFFFFFF0A00000001000000001BB70012
:100E080000F8240101000000270000000200000093
:100E1800FFFFFFFF0A0000000100000000F82401A6
:100E280000366E0101000000130000000100000000
:100E3800FFFFFFFF0A0000000100000000366E01FE
:100E480000F0490203000000270000000100000034
:100E5800FFFFFFFF0C00000001000000808D5B0019
:100E680000127A00000000002F00000003000000BC
:100E7800FFFFFFFF0C0000000100000000127A00D5
:100E8800001BB7000000000017000000020000006F
:100E9800FFFFFFFF0C00000001000000001BB7006F
:100EA8000024F400010000002F00000002000000F0
:100EB800FFFFFFFF0C000000010000000024F40009
:100EC80000366E010100000017000000010000005C
:100ED800FFFFFFFF0C0000000100000000366E015C
:100EE80080C3C901030000002F00000001000000BA
:100EF800FFFFFFFF0C0000000100000080C3C901D4
:100F08000048E801030000002F0000000100000075
:100F1800FFFFFFFF0E00000001000000808D5B0056
:100F2800B6A16800000000003700000003000000C0
:100F3800FFFFFFFF0E00000001000000B7A16800DE
:100F4800001BB700000000001B00000002000000AA
:100F5800FFFFFFFF0E00000001000000001BB700AC
:100F68006D43D100010000003700000002000000BE
:100F7800FFFFFFFF0E000000010000006E43D100DC
:100F880000366E01010000001B0000000100000097
:100F9800FFFFFFFF0E0000000100000000366E0199
:100FA800DB86A201030000003700000001000000FA
:100FB800FFFFFFFF1000000001000000808D5B00B4
:100FC800001BB700000000001F0000000200000026
:100FD800FFFFFFFF1000000001000000001BB7002A
:100FE80000366E01010000001F0000000100000033
:100FF800FFFFFFFF1200000001000000808D5B0072
:10100800AAC2A200000000002300000002000000A5
:10101800FFFFFFFF1200000001000000ABC2A200AA
:10102800001BB700000000001100000001000000D4
:10103800FFFFFFFF1200000001000000001BB700C7
:101048005585450101000000230000000100000053
:10105800FFFFFFFF1400000001000000808D5B000F
:10106800007C920000000000270000000200000041
:10107800FFFFFFFF1400000001000000007C920049
:10108800001BB70000000000130000000100000072
:10109800FFFFFFFF1400000001000000001BB70065
:1010A80000F82401010000002700000001000000F2
:1010B800FFFFFFFF1600000001000000808D5B00AD
:1010C800E82A8500000000002B0000000200000054
:1010D800FFFFFFFF1600000001000000E92A85005D
:1010E800001BB70000000000150000000100000010
:1010F800FFFFFFFF1600000001000000001BB70003
:10110800D1550A01010000002B0000000100000079
:10111800FFFFFFFF1800000001000000808D5B004A
:1011280000127A00000000002F00000002000000FA
:10113800FFFFFFFF180000000100000000127A0006
:10114800001BB700000000001700000001000000AD
:10115800FFFFFFFF1800000001000000001BB700A0
:101168000024F400010000002F000000010000002E
:10117800FFFFFFFF1A00000001000000808D5B00E8
:1011880027AE7000000000003300000002000000DD
:10119800FFFFFFFF1A0000000100000028AE7000EA
:1011A800001BB7000000000019000000010000004B
:1011B800FFFFFFFF1A00000001000000001BB7003E
:1011C8006658E10001000000330000000100000043
:1011D800FFFFFFFF1C00000001000000808D5B0086
:1011E800B6A16800000000003700000002000000FF
:1011F800FFFFFFFF1C00000001000000B7A168000E
:10120800001BB700000000001B00000001000000E8
:10121800FFFFFFFF1C00000001000000001BB700DB
:101228006D43D100010000003700000001000000FC
:10123800FFFFFFFF1E00000001000000808D5B0023
:1012480000A86100000000003B0000000200000050
:10125800FFFFFFFF1E0000000100000000A8610062
:10126800001BB700000000001D0000000100000086
:10127800FFFFFFFF1E00000001000000001BB70079
:101288000050C300010000003B0000000100000006
:10129800FFFFFFFF2000000001000000808D5B00C1
:1012A800001BB700000000001F0000000100000044
:1012B800FFFFFFFFD0960120BC9601209E960120DB
:1012C800989601208A960120C696012084960120CE
:1012D800789601203C9701207297012046970120BB
:1012E8004097012036970120689701203097012008
:1012F80020970120C29401209E940120EE940120A1
:10130800049501201C950120489501206C95012029
:1013180090950120BC950120E09501201C960120A4
:101328004C960120F49601207C9701209297012089
:101338007A9D0120A49B01203C9A0120F49B012066
:10134800309C0120349C0120D8980120FE9801206F
:10135800209901206A990120AE990120F89901206D
:10136800709A0120CC9A01200A9B0120669B0120DB
:10138000411122C4370401201305843606C6EF40FC
:10139000502213058436EF40D0216120A524370563
:1013A000012013054538EF40D02001A0011122CCC7
:1013B0003714008026CA4AC84EC652C4130484009B
:1013C00006CE56C2B7090120230A0400AA842E893A
:1013D0004D0493894944254A294681462685CA8574
:1013E000EF5010684E95834705002946814623003B
:1013F000F4002685CA85930AF4FFEF509030631EEF
:101400000900636C9A002285F2406244D24442494A
:10141000B249224A924A05618280AA842E89568462
:1014200065BF130101D505677D732322912A232E01
:101430003129232C4129232A512923286129FD748C
:101440002326112A2324812A2320212B23267129B4
:1014500023248129930707281A91938A046A8A977B
:10146000BE9A93070728938404208A970D4B014A5C
:101470008149BE94EF20505A2A842E892685D6852C
:10148000EF20400FEF205059B30785403335F5006A
:10149000B3852541D297898D33B74701AE997D1B1E
:1014A0003E8ABA99E3180BFCB705012037090120E1
:1014B0009385853813058939EF40C07D0D468146F7
:1014C0005285CE85EF50F023D535EF40900E8567DD
:1014D0007D7513870728930A05200A97BA9A138700
:1014E0000728130A05D80A97130505DC0D4C814B14
:1014F00081443A9A330BA700EF2010522A84AE8918
:101500005686D2855A85EF20A00CEF20F050B30705
:1015100085403335F500B3853541DE97898D33B786
:101520007701AE947D1CBE8BBA94E3170CFCB70513
:1015300001209385053A13058939EF40A0750D46C2
:1015400081465E85A685EF50D01B8D35EF40700635
:1015500085677D7513870728930A056A0A97BA9AE3
:1015600013870728130A05DC0A97130505DA0D4CC3
:10157000814B81443A9A330BA700EF20F0492A842B
:10158000AE895686D2855A85EF20C00BEF20D04811
:10159000B30785403335F500B3853541DE97898D36
:1015A00033B77701AE947D1CBE8BBA94E3170CFC65
:1015B000B70501209385053B13058939EF40806D00
:1015C0000D4681465E85A685EF50B013C533EF40CA
:1015D000407E05631A918320C12A0324812A832433
:1015E000412A0329012A8329C129032A8129832A1F
:1015F0004129032B0129832BC128032C81281301A6
:10160000012B8280130101812320217F2326117E5B
:101610002324817E2322917E232E317D232C417D24
:10162000232A517D2328617D2326717D297118028B
:1016300081473A89930600102310F70085070907B0
:10164000E39CD7FE930A803E014A8144EF20D03CC0
:101650002A844A85AE89EF207024EF20F03BB3073F
:1016600085403335F500B3853541D297898D33B741
:101670004701AE94FD1A3E8ABA94E3990AFCB70575
:101680000120370401209385053C13058439EF4080
:1016900060601306803E81465285A685EF50700635
:1016A0003133EF4000718567FD7A93870790938A05
:1016B0000A708A97930B803E014B8149BE9AEF20B6
:1016C000B035AA842E8AD6861006CA851305015025
:1016D000EF20501DEF205034B30795403335F5000F
:1016E000B3854541DA97898D33B76701AE99FD1B04
:1016F0003E8BBA99E3950BFCB70501209385C53C59
:1017000013058439EF4000591306803E81465A85FF
:10171000CE85EF50007F5939EF40A0698567FD7A8B
:1017200093870790938A0A708A97930B803E014BA8
:101730008149BE9AEF20502EAA842E8AD6861006A2
:10174000CA8513050150EF201016EF20F02CB307C7
:1017500095403335F500B3854541DA97898D33B728
:101760006701AE99FD1B3E8BBA99E3950BFCB7055B
:1017700001209385C53E13058439EF40A05113061F
:10178000803E81465A85CE85EF50A0770531EF40E7
:1017900040628567FD7A93870790938A0A708A97DB
:1017A000930B803E014B8149BE9AEF20F026130730
:1017B0000150AA842E8AD6861006CA854A85EF2053
:1017C000B00EEF207025B30795403335F500B38593
:1017D0004541DA97898D33B76701AE99FD1B3E8B82
:1017E000BA99E3940BFCB7050120938505411305D5
:1017F0008439EF40204A1306803E81465A85CE85C3
:10180000EF5020706536EF40C05A130B803E814A7E
:101810008149EF207020AA844A852E8AEF20500843
:10182000EF20901FB30795403335F500B385454150
:10183000D697898D33B75701AE997D1BBE8ABA9969
:10184000E3190BFCB7050120938545431305843943
:10185000EF4040441306803E81465685CE85EF50CA
:10186000406AA936EF40E05431618320C17E0324F1
:10187000817E8324417E0329017E8329C17D032A41
:10188000817D832A417D032B017D832BC17C130144
:10189000017F82801171A2DDA6DBCAD9CED786DF97
:1018A000AA892E843289B68463F284048147639BBB
:1018B00087048147639EF4049C11BE94238CE4F258
:1018C0009307F4FF9811BA9703C787F3A2862C08F1
:1018D000136707F84E850146238CE7F29D24FE50DE
:1018E0006E54DE544E59BE5911618280CA85A2865B
:1018F00001464E853AC6B1244E854D24818C2299ED
:1019000032475DB73408BE9623800600850745B789
:101910003306F900034606003408BE962380C6004D
:10192000850749BF011122CC26CA4AC84EC606CE39
:10193000AA842E843289B68901E8F2406244D244F6
:101940004249B249056182804A85892CA685CE86A6
:1019500001464A85792ACE947D14F9BFB286AA87BA
:101960001307850C0148814823A0070123A2170112
:10197000A107E399E7FE2E867D479305800A19BFEC
:101980009306800A45B74971232481161304800801
:1019900033D485023C012322911623202117232EC4
:1019A000311523261116232C4115AA89AE84980AD5
:1019B0003E890145814588C3CCC3A107E39BE7FE6F
:1019C0007D47930580084A85F135930680084A864D
:1019D000A2854E85130A8008B137B3F4440395C439
:1019E00033044403930680084A8685450A851D3FD3
:1019F0008147B306F10083C606003307F4004E9713
:101A00002300D7008507E396F4FE8320C116032444
:101A1000811683244116032901168329C115032A3F
:101A200081157561828049712324811623229116C4
:101A300032C6AE841306800C81452A8428092326E9
:101A40001116EF402024B2461947268693058008D8
:101A50002809893593068008300985450808D93555
:101A600081471307000210083E9603460600B3069E
:101A7000F40085072380C600E397E7FE8320C116A4
:101A800003248116832441167561828069712324A1
:101A900081122322911232C6AE841306800C814536
:101AA0002A84A80823261112EF40C01DB246194708
:101AB000268693058004A808F13B93068004B008AD
:101AC00085450808853581471307000410083E96B0
:101AD00003460600B306F40085072380C600E3979B
:101AE000E7FE8320C1120324811283244112556131
:101AF0008280797122D426D24AD04ECE06D652CCDC
:101B0000AA842E89B2890144631AD400B2502254A7
:101B100092540259F249624A456182803306340187
:101B2000937786FFA6978843CC431D8A0E0636C658
:101B3000330A8900EF50A0372300AA000504B246FB
:101B4000E1B7797126D24AD04ECE52CC06D622D4F5
:101B50002A89AE89328A8144639AD400B2502254D1
:101B600092540259F249624A45618280B3879900D2
:101B700003C5070033864401137486FF1D8A0E06D1
:101B800081454A9436C6EF5020351C408504B24644
:101B90003D8D5C4008C0BD8D4CC07DBF1C411171A6
:101BA000A2DF3EC45C41D2D7DAD33EC61C45E2CFA9
:101BB000E6CD3EC85C45EACBEEC93ECA1C49A6DD6F
:101BC000CADB3ECC5C49CED9D6D53ECE1C4DDED14B
:101BD0003ED05C4D3ED21C513ED45C513ED61C558D
:101BE000832D0506032D45063ED85C553EDA1C596B
:101BF0003EDC5C593EDE1C5DBEC05C5DBEC23C414D
:101C0000BEC47C41BEC63C45BEC87C45BECA3C493C
:101C1000BECC7C49BECE3C4DBED07C4DBED23C55E8
:101C2000BED47C55832C0509032B4509BED63C59EF
:101C3000BED87C59BEDA3C5DBEDC7C5DBEDE83274F
:101C400005083EC1832745083EC3832785083EC556
:101C50008327C5083EC7832785093EC98327C50951
:101C60003ECB8327050A3ECD8327450A3ECF8327F7
:101C7000850A3ED18327C50A3ED38328050B8327D7
:101C8000850B0324450B032C050C3ED58327C50B80
:101C9000032A450C3ED7B7070120938707453EC26C
:101CA000A2474257E256725633CEE7005257B24728
:101CB0009645B98F6647334EEE007647B98F665723
:101CC000334EEE007657B98F6A47334EEE007A47AF
:101CD000B98F4247358FD246B3C3C60086560646F3
:101CE000358F9656B3C3D3008A46358F9A46B3C311
:101CF000D3008A56358F9A56135FF701B3C3D300CA
:101D0000E24613D8F301B18E7246B3C6B601B342B0
:101D1000B6002A46B3C2A201B645B18E3A46B3CB4D
:101D200016018256B3C2C2002646B3CA820093DEB1
:101D3000FA01358E9256B3CFB600A65693D5FB0165
:101D4000358EB65633469601B3CFDF00AA56B3CFD1
:101D50006F01B349D600BA56464633C9DF00A256D2
:101D6000939F1900B3C4C600B256564633C3C6008B
:101D7000C65613D6F901B58CD6563343D300CA469E
:101D8000B58CDA46B3C484013343D3009396130071
:101D9000336FDF00931617003368D80093961A004C
:101DA000D58D93961B00B3EEDE0093161900D18EED
:101DB0001356F9013366F601B3CECE01BD8D318FD6
:101DC000939F17001356FE01FD83060EB3E7C7016C
:101DD000B36FF60133C63701A24733489800334347
:101DE0004301B349F800B247334F6F00B3CF2F011F
:101DF0003349FF00E257B3C376009312130093D622
:101E0000F4011353F301860433639300B3C4FE005B
:101E1000F257B3E25600B346730133C3F500B3C2C1
:101E2000520193D74401B34DB70133CDA301931AA7
:101E3000C300B20413534301B3EAFA00B3E46400ED
:101E400093D75D0133C36201B3CC9601931BBD00F0
:101E5000B3EBFB0013DBBC0093175301336BFB00A8
:101E6000334C8601B3C74F01D60C1353B300336311
:101E70009301139AE700935C2C01C9833A0CB3E7F2
:101E80008701124C33EA4C01AE0D832C4C00135DDC
:101E90005D0133EEAD01832D0C0013CCF4FFB3CC08
:101EA0002C01337CCC0133CC8C0193CCFBFF62C67C
:101EB000B3FC6C00134CFEFFB3CC5C01337C6C01B3
:101EC000334C9C0066D9934CF3FFB3FCFC0013CD5C
:101ED000FAFF62DB134CFBFF337C4C01337D7D0149
:101EE000B3CB7C01334ECC015EDD93CBF7FFB3CD9A
:101EF0003D01B3FB3B0172DF93C9F9FF134EFAFFBB
:101F0000337E2E01B3F959011349F9FF3379990052
:101F1000B3C7F900BEC1B3474901BEC3825733C33B
:101F20006B001ADC33436E0133CEF60092579354A4
:101F30004E001ADEB3C7F2001393C701720E9183ED
:101F400033E36400B3E7C701C644564E33CDAD0159
:101F5000B18C33CECF0113194E0193D9C400135E57
:101F6000CE00D204B3E92901336E9E006AC4E64470
:101F70007649B3481701B344980033492F0193DAE7
:101F8000D401131A39008E041359D90133EA4A01D6
:101F9000336999009A4A8A4433C4830033CB55018C
:101FA000B3C49E00931BDB0093DA3401135B3B0147
:101FB000B604B3EA5B01B3E46401931BD40113DB01
:101FC000380033EB6B010D80934BFEFFF608B3E84E
:101FD0008800B3FB2B0113C4F9FFB3CBFB003374B0
:101FE0004401334464005EC1934BF9FF22C3B3FB49
:101FF0005B011344FAFFB3CBCB01658C334434014E
:102000005ED093CBFAFFB3FB6B0122D213C4F4FF73
:1020100033C92B013374140133444401CACC13492E
:10202000FBFFA2CE3379F90013C4F8FF93C7F7FF83
:1020300033746400B3F7C7011343F3FF3373330101
:10204000B3C76701BEC8B3471301BECAC247258CD8
:10205000A2C7B3C9FE00D24713DBF9018609B3C496
:10206000F50093971400336BFB008647FD80B3E4C3
:102070003401334EF7009647935BAE014A44B3C92F
:10208000F30093976900B3EBFB00A657131A6E0099
:102090003349590133CEF600B657CAC533498600D5
:1020A0005A4433C3F20093D9A90133EA4901935842
:1020B0007E0093597300660EB3E9C90133CE8F00D9
:1020C0006A4493179301B3E7F800334388007A44D6
:1020D00093188E00935D890133448F00B3ED1D0189
:1020E000935AE30093182401B3EA1A014A0393C8F0
:1020F000FBFF398033646400B3F8F8001343FAFF40
:10210000B3C8680133733301334393002209C6C255
:10211000135E8E0193C8F7FF336E2E019AC0B3F899
:10212000B80113C3F9FFB3C878013373C301334354
:10213000430146CB93C8FDFFB3F858011AC91343B6
:10214000FEFF33738300B3C7F8009348F4FFB3492D
:102150003301B3F8980013C3FAFF93C4F4FF337349
:102160006301B3F44401134BFBFF337B7B01258CEC
:1021700022CD33445B0122CF2254B3C8C801C6D458
:10218000B348B301334D8600C6D63254C25433CC63
:102190008F00B34B9800D2549318BC0113545D00C8
:1021A00033439F008654135C5C006E0D33C99E0060
:1021B00096543364140113DECB01B368AC01131CD5
:1021C0004300336CCC0133CE9500AA441353C301B2
:1021D000920B334B9700BA44B3EB6B00935C6901ED
:1021E00033CA9300AA541313AE00B3EC6C00B3CA05
:1021F0009600BA541313FA00135D1B01B3C4920086
:102200003E0B135A1A01336D6D00336A6A0113D302
:102210008A00139B8401E20AA180B3EA9A002A098A
:1022200093C4FBFF135E6E01336E2E01336B6B00A4
:10223000B3F494011343FCFFA18C3373C301334304
:10224000130126D79344FEFF1AD5B3F4440113C3F8
:10225000FCFF3373A301B3C4840126D8B3447301D4
:1022600026DA9344FAFF1343FDFFB3F4640133739A
:102270005301B3C4C40126C5B344930113C3FAFF89
:102280001349FBFF337383001344F4FF33791901BF
:102290003374740193C8F8FFB3F8880133445401D0
:1022A00026C7A2D2B3C468016244A6D0A644218F37
:1022B0007244A58EB644B3C3830093582700139489
:1022C000E301B3C29200336414019394720193D872
:1022D0009600B3E41401C6583349490193D323004F
:1022E00033461601D6587A0733677700B3CF1F01FC
:1022F000139A7F009358960193DF9F011E06B36DDA
:10230000F6016656B3631A0193D292003348C800AF
:10231000765613CEF4FFDE06334FCF00931F9F0097
:1023200013567801B3EFCF000A56B3E65600337E5A
:102330007E00B3CECE001A5613DBEE01B3488E00FA
:10234000B18D13962500B36ACB0013C6F6FF135F59
:102350007F018A0E3376B601C6D8260893C8F3FFEC
:10236000F9813368E801B3E5D501398EB3F8F80196
:1023700093CEFDFFB3FE0E01B2DA33C6980032D120
:1023800033C6DE0032D31346F8FF33765601B34D21
:10239000B60113C6F5FF93C8FAFF618EB3F8E800E3
:1023A0003346F6011347F7FF758FB2DC33C60801D9
:1023B000B2DE334B57018A46224713CAFFFF02564B
:1023C000B34FD70032479A461344F4FF658CB98E59
:1023D0000647B34CB400337ABA00B3CFEF001647C8
:1023E000E6457644B98E2A57334A7A003343A3012F
:1023F000B3CFEF003A57B98E4657B3CFEF005657D9
:10240000B98E4A57B34BC70012565A57318F4A46B6
:10241000B3CBCB005A46318F4256B3CBCB0052568A
:10242000318F0A56B3CBCB001A5693D4FB01318FB0
:102430006A561358F701B18D7A56B3C53501318C00
:102440002A463D8CB18D3A4633CE4501AE45318C9E
:102450006256334CB401935EFE01B348B600725627
:10246000BE45135FFC01B34AB6002656B3C8C80088
:102470003656B3C82801B3CACA006656B3CA6A0042
:10248000EA4533CDC80076569358FD0113141D005C
:10249000B3C3CA004646939A1600B342B600FA4543
:1024A00056462D8E8E45B3C2B2009E452D8E865562
:1024B000B3C2B2009655B3C292012D8E9315170088
:1024C000CD8C93951B003368B80093151C00B3EEB8
:1024D000BE0093151E00336FBF0093951300334663
:1024E0006601B3E5B80093D8F30133485800B18CC6
:1024F0002D8FB3E8880093D5F201131416008602DD
:102500007D8233665600334FFF01B3CEDE004D8C23
:10251000FD82B345C60113D6FF01860FB3E6F6016F
:10252000B3CB7801B3C8A601A24633448401B36A91
:10253000560133CD0601B2461256B3C9790133CCE8
:10254000960082563346D601931FC600B3C6E601F5
:10255000B98F13DE46015182B206D18E3349B900DC
:1025600013D65901334383009392B700AE09D58344
:10257000B3CA7A0033EECF01B3E3F900935FB90039
:102580009317530156091353B300B3E2C2003366E5
:1025900023011249B3CC1C01334B5B01B3EFFF00A5
:1025A00013D32C019317EB00BA0C135B2B0133638D
:1025B000F300B3679B01832C8900032BC900934967
:1025C000FEFFB3CCAC0113C9F6FFB3F95900334B8E
:1025D0008B01B3C93C013379790033492B014EC4D7
:1025E00093C9F2FF4AC6B3F9C90013C9F3FFB3C9CF
:1025F000C9013379F9013349D9004EC89349F6FF2F
:10260000B3F9F9004ACA13C9FFFF33796900B3C2AD
:10261000590016CCB342790093C3F7FFB3F3A3017B
:1026200016CE134DFDFF9342F3FFB3F28201337DCB
:10263000CD01134CFCFF337CDC00B347FD003ED4DE
:10264000B3476C003ED6E25733C6C300C64633C319
:10265000B700F25732D033C6F20133CB870093175D
:10266000CB0132D2135B4B001356430072035D8ED5
:10267000B3676B0033CB1601D646135CCB00520B0D
:1026800033C3560193164301336CDC008646135363
:10269000C300B36F630133C3060196469359D30158
:1026A0000E03B3C3960093963300B3E9D900C25624
:1026B00093D3D301B3E36300B3C2E601D256334AE6
:1026C0007A01B3CDED0033C3D601131ED30093D6E8
:1026D000320113533301B602B3E262001399DD01F4
:1026E00013533A0093DD3D00760AB366DE00336E85
:1026F000BA0113CAFFFF33696900337A7A001343C2
:10270000FCFF334AFA00337333013343C30052D81A
:1027100013CAF3FF1ADA337ADA0013C3F9FF334A24
:10272000FA01337353003343830152DC13CAF6FFBB
:10273000337A2A011ADE13C3F2FFB3437A003373EC
:10274000C301334333019EC09343F9FFB3F3F30056
:102750009AC293C7F7FF1343FEFF3373C300B3F767
:10276000F7011346F6FF33768601B3C72701BEC8CB
:10277000B347C601BECACA57B3C6D300B6C4B3CCAA
:10278000E701DA57B3465300B6C633CCD70193D628
:10279000FC0193171C00D58FE646860C135CFC01E8
:1027A00033C97601F6469352A9011A0933CAE600E5
:1027B00093166A00B3E2D200A656135AAA01336AEE
:1027C0002A0133CEB600B656135D7E00660EB3CD39
:1027D000860093969D01B369DD00865693DD7D00EA
:1027E00033E3CD0133C61601965693538601220674
:1027F000B3C65601139E8600E182D18E4656B3E3DE
:10280000C301336C9C01334E060156561359EE003A
:102810004A0E258E931F260139823366C601134E58
:10282000FAFFB36FF901337E6E0013C9F2FF3379FB
:102830003901334E8E01F2CC93CDF6FF334EF900C1
:10284000F2CEB3FDCD0013CEF9FF1349F3FF337E73
:102850007E00B3CD6D0013C3FFFF334E5E003373B4
:10286000F30093C7F7FFF2D2B3F75700134EF6FF0A
:10287000337E8E01B3C7F7013379D900BEDAB34690
:10288000DE008E47134CFCFF337C4C0113CDF3FF6D
:10289000B6D4B346730033494901337DFD01B6D642
:1028A000B346CC00CAD0B6D8334D3D01B3C91701E9
:1028B0009E470A4693D6590033C95701334E060145
:1028C0001A469317B901DD8E334396001359590008
:1028D0009397B901B367F9001356CE01131943005A
:1028E000120E1353C3013369C900336E6E004A469A
:1028F0005A433346E601B342D3011393A200135A5D
:10290000660193D262012A06336A6A00B3E2C2000A
:102910003A432A46B34CE30033467601135B160173
:102920001393FC00B3696B00931FF6007653665651
:1029300093DC1C01334383002D8E131B83019353BF
:102940008600B3637B00134BF9FF337B5B00334B93
:10295000FB00B3EFFC01DADC13CBF2FF337BFB01AE
:10296000334B2B01135383005AC1620613CBFFFF75
:1029700033666600337B7B001343FEFF93CCF3FF8B
:1029800033734301B3425B00B3FCFC00134BF6FF0F
:1029900093C7F7FF3343D300337BDB00B3F7270143
:1029A00093C6F6FFB3F6C601B3C777003EC9B3C7F7
:1029B000C6003ECBEA579ADE1343FAFFB3CB77014A
:1029C000FA57337333013343C3013D8F9316E70145
:1029D00093D72B00DD8EAE471AC313C3F9FFBD8D0D
:1029E000BE473373C30009833D8C1316740193D71C
:1029F00095005D8EEA472580DE05C18D33C4170141
:102A0000FA47FA0BB3EBEB00B3C757019398770083
:102A100093DA9701AA57334343011357940133C8FC
:102A20000701BA571AC733E3E800BD8C1397940027
:102A3000935778015D8F8A571E04B36A5401B3C857
:102A4000E7019A5713DAE801B3CCFC01B3CED70102
:102A500093972E00B36FFA0093C7F5FFB3F75701B2
:102A6000B3C77701DD802608336898003ECF93C74F
:102A7000FAFF93DEEE01139F2800B3F7070133EF4F
:102A8000EE01AD8F9348F6FFB3F868003ED3934E46
:102A9000F3FF9347FFFF33C4D800B3FEEE00F58F7A
:102AA00093C4FFFFB98F22CDB3F4740133C4CE00B9
:102AB00022D13ED516C5B3C704013ED792479348ED
:102AC000F7FF1344F8FFC1073EC2124793C6F6FF53
:102AD00093CBFBFFB7070120B3F8E8013374F4018F
:102AE000F18EB3FBBB0093870751334B3B01B3C857
:102AF00068003344540133CCE60133CAFB016391CF
:102B0000E79AA2471CC1B2475CC1C2471CC5D24765
:102B10005CC5E2471CC9F2475CC982571CCD92577D
:102B20005CCDA2571CD1B2575CD1C2571CD5D2572D
:102B30005CD5E2571CD9F2575CD986471CDD964715
:102B40005CDDA6472320B5072322A5073CC1B64775
:102B50007CC1C6473CC5D6477CC5E6473CC9F6475D
:102B60007CC986573CCD96577CCDA6573CD5B657E9
:102B70007CD5C6573CD9D6577CD9E6573CDDF657AD
:102B80007CDD8A472320F5089A47232A850A7E544C
:102B90002322F508BA4723289509232A6509232605
:102BA000F508CA472320850D2322450D232CF5085F
:102BB000DA47EE545E59232EF508EA47CE593E5ABD
:102BC0002320F50AFA47232455082328150B23222E
:102BD000F50A8A572324F50A9A572326F50AAA5795
:102BE000232CF50ABA57232EF50AAE5A1E5B8E5BCC
:102BF0007E4CEE4C5E4DCE4D11618280B787379E84
:102C000059719387979B3EC4B7A777E3D6CC938639
:102C1000018B938707B9B73AEFC6D2CEDEC8E2C6BA
:102C2000EAC2A2D6A6D4CAD2CED0DACAE6C4EEC0D0
:102C3000AA95B71B0080138601880D4A214C3EC619
:102C4000138D0602938A0A726311B5023654A65494
:102C500016598659764AE64A564BC64B364CA64C10
:102C6000164D864D01456561828083A70BFF138B4E
:102C70000BFF639D071E1C4285071CC281EF5C424F
:102C800085075CC281EB1C4685071CC681E75C4654
:102C900085075CC6B70701201387075181473308B2
:102CA000F60003230703032808000008B308F40014
:102CB0003348680023A0080191071304000311079B
:102CC000E39F87FC89479CCA9D47DCCA7257A5478A
:102CD0009CCE9547DCCE23A0460123A2460123A427
:102CE000860123A64601814732484249D2446244C4
:102CF000F2438252925F225FB25E425E5253E258CA
:102D0000F25C3E98A249931D5700CE979349370035
:102D10006D83BE9933E7ED0033C7E9003A99935DBF
:102D2000990113471900931979003E97B3E9B90146
:102D3000B3493701CE9493DD740113C744009399CE
:102D400094003E97B3E9B901B34937014E94935DBE
:102D50003401134714009319D4003E97B3E9B90125
:102D6000B3493701CE9393DDB30113C75300939951
:102D700053003E97B3E9B901B3493701CE9293DDD1
:102D8000920113C79200939972003E97B3E9B9017B
:102D9000B3493701CE9F93DD7F0113C72F0093996D
:102DA0009F003E97B3E9B901B34937014E9F935D48
:102DB0003F0113476F009319DF003E97B3E9B90154
:102DC000B3493701CE9E93DDBE0113C75E009399D0
:102DD0005E003E97B3E9B901B34937014E9E935D5A
:102DE0009E0113473E0093197E003E97B3E9B90157
:102DF000B34937014E93935D730113475300931901
:102E000093003E97B3E9B901B3493701CE9813C790
:102E100088009399D80093DD38013E97B3E9B90152
:102E2000334737016697BA8CE39E07ED46DC4AC804
:102E300026CA22CC1ECE16D07ED27AD476D672D8AE
:102E40001ADA3ADEB6879308010103A3070003AE3E
:102E50000801910791083343C30123AE67FEE316CF
:102E6000FDFEC287E31258E923208B0183270B0064
:102E70000505FD172320FB008A07B6979C43A30F87
:102E8000F5FED9B3375E5555814E8146130E5E551A
:102E9000930F0002130F00E083C7150003C705005E
:102EA000B308D540A207D98F03C725004207D98FA1
:102EB00003C7350062075D8F935717003378C7014A
:102EC000B3F7C701C29701481303280033D707019E
:102ED00033D367000D8B1373330011E6B382D80030
:102EE000F6922390020083D20800110889081697F1
:102EF00033076740239FE8FEE318F8FDC1169105EC
:102F0000C10EE39BE6F98280130101812328617DD4
:102F1000056B2326117E2324817E2322917E23208C
:102F2000217F232E317D232C417D232A517D232493
:102F3000817D2322917D7D742326717D93070BD49F
:102F4000130101A88A979304042CBE942A8AAE8A9E
:102F50002685930500025D3113060002A6852685AD
:102F6000EFE0DFB21389040281460146CA851305EA
:102F70000174EF10E00F93070B943305F1008146C5
:102F80000546CA85EF10C00E93070BB43305F10058
:102F900081460946CA85EF10A00D13050174EF1094
:102FA000601B13070BD40A979309043013040460C1
:102FB0003A94BA990148A6870147CE861306017450
:102FC000A2852285EF00B01E2285EF10600D854698
:102FD0000D46CA852285EF10A0092285EF10000C4E
:102FE000A2855285EF007077054B930C0018094CB1
:102FF000937BFB0F0148A6875E87CE86130601747C
:10300000A2852285EF00D02B2285EF106009CA85AA
:10301000854613863B002285EF1080052285EF1040
:10302000E00733059B03A2855295EF0010736319E7
:103030008B05930501745685EF10200FA6851305A7
:103040000A4813060002EF20904213010158832022
:10305000C17E0324817E8324417E0329017E83294E
:10306000C17D032A817D832A417D032B017D832B32
:10307000C17C032C817C832C417C1301017F8280E5
:10308000094BBDB7130101812320217F0569232648
:10309000117E2324817E2322917E232E317D232CB9
:1030A000417DB689232A517D2328617D2326717DA8
:1030B0002324817D2320A17D2322917D232EB17B9A
:1030C000AA8A1301018B13050990130B0648814648
:1030D0000A95AE8B328ACE850146EF0070791305D2
:1030E00009B081460546CE850A95EF007078130534
:1030F00009D081460946CE850A95EF007077130501
:1031000009900A95EF1000057D74130709F0CA872E
:10311000930404300A97BA94138707F00A971309A7
:1031200004603E86130404103A943A9913060690FC
:103130000548DA870147A6860A96CA852285EF00E8
:1031400010072285EF00D07585460D46CE85228575
:10315000EF0010722285EF0050750146A28556855A
:10316000EF003038054C094D856D937CFC0F1386BC
:103170000D900548DA876687A6860A96CA85228555
:10318000EF0010142285EF00B07113863C00CE854D
:1031900085462285EF00D06D2285EF001071628692
:1031A000A2855685EF00F0336310AC0FD2852285DF
:1031B000EF00505F93850D90A68622868A954A85FA
:1031C000EF00506E93050A182285EF00B05D9385DD
:1031D0000DB09386041022868A954A85EF00B06C64
:1031E00093050A302285EF00F05B93850DD013859F
:1031F0000D904A879386042022868A950A95EF00CF
:10320000B06A13850D900A95EF00906913850D90B3
:1032100085461946CE850A95EF009065DE852285A4
:10322000EF00306993850D908A9522862E85EF00F8
:10323000106813850D900A95EF00306793850D9007
:103240008A9513850A3CEF009017130101758320BE
:10325000C17E0324817E8324417E0329017E83294C
:10326000C17D032A817D832A417D032B017D832B30
:10327000C17C032C817C832C417C032D017C832D1C
:10328000C17B1301017F8280094CF9BD13010181CB
:103290002320217F05692326117E2324817E23227A
:1032A000917E232E317D232C417DB689232A517DA9
:1032B0002328617D2326717D2324817D2322917D16
:1032C0002320A17D232EB17B2A8B1301018B1305B3
:1032D0000990930B064881460A952E8CB28ACE85BA
:1032E0000146EF00F058130509B081460546CE852A
:1032F0000A95EF00F057130509D081460946CE859F
:103300000A95EF00F056130509900A95EF009064B6
:103310007D74130709F0CA87930404300A97BA949E
:10332000138707F00A97130904603E8613040410FC
:103330003A943A99130606900548DE870147A68617
:103340000A96CA852285A5252285EF0070558546F7
:103350000D46CE852285EF00B0512285EF00F05456
:103360000146A2855A85EF0010342A8A135DF54183
:10337000854C056693FDFC0F13060690DE87054815
:103380006E87A6860A96CA852285EF00607322851D
:10339000EF001051854613863D00CE852285EF0053
:1033A000304D2285EF0070506686A2855A85EF0069
:1033B000902F9357F5418948336AAA00336DFD0079
:1033C000639D1C0FD6852285856BEF00B03D9385EC
:1033D0000B90A68622868A954A85EF00B04C93858D
:1033E0000A182285EF00103C93850BB093860410D9
:1033F00022868A954A85EF00104B93850A302285F4
:10340000EF00503A93850BD013850B904A87938633
:10341000042022868A950A95EF00104913850B90A7
:103420000A95EF00F04713850B9085461946CE8527
:103430000A95EF00F043E2852285EF0090479385DF
:103440000B908A9522862E85EF00704613850B908F
:103450000A95EF00904593850B908A9513050B3CD8
:10346000EF00B01A9357F541130101753367450119
:103470008320C17E33E5A7013305A040B337E000C8
:103480001D8D7D810324817E8324417E0329017E5D
:103490008329C17D032A817D832A417D032B017D00
:1034A000832BC17C032C817C832C417C032D017CEC
:1034B000832DC17B1301017F8280894C5DBD130187
:1034C00001BF2322914023202141B2842A89014651
:1034D0000A8523261140232481402E84EF007009A1
:1034E0000A85EF00B03BA6850A85EF00502F054600
:1034F000A2850804EF00F0070804EF00303A938536
:1035000004180804EF00B02D10048A850A85EF0026
:10351000103A0946A2850804EF00B0050804EF0040
:10352000F037938504300804EF00702B10048A856F
:103530000A85EF00D0370A85EF0090369305043CEA
:103540000804EF00C06F0A860C040A85EF005036AD
:103550000A85EF0090358A854A85EF00B0388320D0
:10356000C1400324814083244140032901401301C9
:1035700001418280411126C24AC006C622C42A895E
:10358000AE84EFF07F9881471307004AB306F90035
:1035900003C60600B386F40085072380C648E39778
:1035A000E7FE056413050492CA8526951306004AB2
:1035B000EFE06FC713050494269593050002EFF022
:1035C000EFE3B24022449244024901454101828026
:1035D000757122C54AC12A842E898800930500028C
:1035E00006C726C3B284EFF06FE18C002E85130668
:1035F0000002EFE04FC3A68588101306004AEFE0F3
:103600008FC28C000A8513060004EFE02FC8141047
:1036100026868C002285EFF0FFA6A28508101306EF
:103620000044EFE04FC04A850A86930600049305E4
:103630000002EFE04FB5BA402A449A440A490145D6
:103640004961828071714AD12A89080822D526D31E
:1036500032844ECF06D7AE84930906488D358567F0
:10366000138707929387079422971408A29703461B
:10367000070005078506A38FC600E31AF7FE0C08AE
:10368000880813060004EFE06FC094184E860C08FB
:103690002685ED3E2AC6A685881813060044EFE06D
:1036A0008FB8B246856593850594A2958808130660
:1036B0000002EF0030334A8590089306000493051A
:1036C0000002EFE04FACBA502A549A540A59FA4912
:1036D00001454D6182805D71CAC00569A2C44EDE9C
:1036E00052DC56DA5AD85ED662D466D26AD06ECE32
:1036F000BE8C86C6A6C22AC02E8BB28B36843A8C6C
:1037000042C446C281478149814A130909D0114DFB
:10371000854D130A000433063C0183461600834599
:10372000060083442600139786004D8F8565FD159E
:10373000920491826D8FD58C6366E9109396170081
:10374000A2962390E6008507639EA70F12479397E2
:103750002A0013954A00B305F700E6979843C64739
:1037600093983A005A9533861B01B5EBA286EF1069
:103770003060850A814763419904638F4A03139738
:10378000170022972310970085076397A703124716
:1037900093972A0013954A00B305F700E6979843DC
:1037A000C64793983A005A9533861B01B1EBA2861F
:1037B000EF10105C850A8147138769009306800A21
:1037C00063F1E60663814A072246854562853EC667
:1037D000EF00B01D8149B2473DBF8D092DBFC647DF
:1037E0006396B701A286EF10306161B7B2862E866C
:1037F000AA850245BA8722874695EF10F06995BFE2
:10380000C6476396B701A286EF10105F65B7B28610
:103810002E86AA850245BA8722874695EF10D06783
:1038200051BFE39C4AFBB640264496440649F259F0
:10383000625AD25A425BB25B225C925C025DF24DEC
:1038400061618280E34A99F61DBF5D71CAC0056956
:10385000A2C44EDE52DC56DA5AD85ED662D466D2A4
:103860006AD06ECEBA8C86C6A6C22AC0AE8B328C07
:1038700036843EC442C2468A01478149014B13093E
:1038800009D0114D854D930A0004B3853C0103C650
:10389000150003C5050083C42500931686008567BF
:1038A000C98EFD1792041182FD8ED18C636ED90EE4
:1038B0001316170022962310D60005076316A70FCC
:1038C000924713154B0093152B0013183B005E9580
:1038D000BE9533060C0163180A06A286EF10D06964
:1038E000050B0147634E9902630C5B0393161700A7
:1038F000A2962390960005076314A7039247131519
:103900004B0093152B0013183B005E95BE953306B4
:103910000C01631A0A04A286EF101066050B01471A
:10392000938669009307800A63FFD704630F5B05E2
:103930002246854566853AC6EF0030078149324701
:10394000A9B78D0999B76316BA01A286EF1050691D
:1039500041BF8247B28622872E86AA85338507011A
:10396000EF101070B5BF6316BA01A286EF10506752
:1039700075B78247B28622872E86AA8533850701CE
:10398000EF10106E61BFE31E5BFBB6402644964409
:103990000649F259625AD25A425BB25B225C925C8F
:1039A000025DF24D61618280E34C99F681B721712D
:1039B000232C811A232A911A2326311B2324411BED
:1039C0002322511B2320611B232E7119232E111A30
:1039D0002328211BAA892E8AB28A368BBA843E8478
:1039E000C28B6306080C81463A86A285A801EF00C7
:1039F0002078B00185456808EF00207B37090080FA
:103A000002C0DA881308810C93070900780854086B
:103A10005686D2854E85C131638E0B088546268633
:103A2000A285A801EF00C074B00185456808EF00C9
:103A3000C07785473EC093080B101308810C93078D
:103A400009007808540813860A20D2854E85613112
:103A500063850B0689462686A285A801112FB00131
:103A600068088545EF00607489473EC093080B20C5
:103A70001308810C930709007808540813860A403C
:103A8000D2854E8589398320C11B0324811B832461
:103A9000411B0329011B8329C11A032A811A832A86
:103AA000411A032B011A832BC11939618280BA860E
:103AB000014625BFA6860546A5B7A686094669BF65
:103AC0002571232C8118232A9118232821192326B4
:103AD0003119232441192322511923206119232E3E
:103AE00011182A89AE89328AB68ABA843E84428BFA
:103AF0006302080A81463A86A2852819952D301955
:103B0000854568005D25814856883C197800540039
:103B10005286CE854A85153B63010B08854626866D
:103B2000A2852819B125301985456800BD2D854825
:103B300013880A103C197800540013060A20CE8519
:103B40004A852133630E0B0489462686A2852819EF
:103B50000525301968008545892D13880A203C19F0
:103B60007800540013060A40CE854A858948F13909
:103B70008320C119032481198324411903290119C0
:103B80008329C118032A8118832A4118032B01189D
:103B90001D618280BA86014685B7A686054649B76B
:103BA000A686094665B7B7050080938505106F1096
:103BB0002020B7050080938505306F00B03805667A
:103BC000411113080508130616D0A148AE86014717
:103BD0003C003383E70083970600050789069207B8
:103BE00093870768B3D7C702BD8B2300F300E311A7
:103BF00017FF834791000347810011059207D98F72
:103C0000230EF5FE8347B1000347A100C1059207CB
:103C1000D98FA30EF5FE8347D1000347C100920759
:103C2000D98F230FF5FE8347F1000347E100920788
:103C3000D98FA30FF5FEE31BA8F8410182808567A9
:103C400093860508938717D003C7050091054105A2
:103C50003D8B3307F702210711872318E5FE03C7C1
:103C6000C5FF11833307F702210711872319E5FEEA
:103C700003C7D5FF3D8B3307F70221071187231AAE
:103C8000E5FE03C7D5FF11833307F702210711872C
:103C9000231BE5FE03C7E5FF3D8B3307F702210732
:103CA0001187231CE5FE03C7E5FF11833307F702E5
:103CB00021071187231DE5FE03C7F5FF3D8B330761
:103CC000F70221071187231EE5FE03C7F5FF1183C5
:103CD0003307F70221071187231FE5FEE396D5F688
:103CE0008280930700143306F6028566411193869D
:103CF00016D0214832951386052001473C00B38831
:103D0000E700B387E500839707000907AA079387B1
:103D10000768B3D7D70293F7F73F2390F800E31F64
:103D200007FD835781000357A100A1052300F5007B
:103D300093182700A183B3E71701A300F500835769
:103D4000C100198315059398470033671701A30E27
:103D5000E5FE0357E100918393186700B3E717016D
:103D60000983230FF5FEA30FE5FEE318B6F8410122
:103D70008280930700143306F60205679306052038
:103D8000130717D0B29583C7150003C60500210598
:103D9000A20793F70730D18FB387E7029505938782
:103DA0000720A983231CF5FE83C7D5FF03C6C5FFE3
:103DB0009A07098293F7073CD18FB387E70293876D
:103DC0000720A983231DF5FE83C7E5FF03C6D5FFA2
:103DD0009207118293F7073FD18FB387E70293874A
:103DE0000720A983231EF5FE83C7E5FF03C6F5FF61
:103DF00099830A06D18FB387E70293870720A983A7
:103E0000231FF5FEE391A6F882800566AA861308B3
:103E1000050841110145130616D0A148AE8701439C
:103E20003800330E67000397070005038907120760
:103E3000130707683357C7023D8B2300EE00E311D9
:103E400013FF83479100034781000343A1009207BA
:103E5000D98F03C706009106C105B98F0347B1008A
:103E600012073367670003C3D6FF33476700D98F54
:103E7000C98F0345D1000347C1001205598D03C7FF
:103E8000E6FF398DC98F0345F1000347E1001205B4
:103E9000598D03C7F6FF398DC98F13F5F70FE31F4F
:103EA000D8F641018280930700143306F602856834
:103EB000411113830520938818D0214E2A9601457D
:103EC00081463387D500031707003C00B6972A07C1
:103ED000130707683357170389061377F73F2390B3
:103EE000E700E390C6FF8356A100835E810003577D
:103EF000C100139F260093D78E00B3E7E701034F5D
:103F000016000358E100A105B3C7E701034F0600FF
:103F10001506B3CEEE01B3E7D701C98F13D56600FE
:103F200093164700558D8346D6FF358DC98F13559F
:103F3000470013176800598D0347E6FF1358280000
:103F4000398DC98F0345F6FF3345A800C98F13F596
:103F5000F70FE317B3F641018280011122CC2A84C6
:103F60002E852EC606CEEF10B01BB24522859306D5
:103F700004188397050003D725000D05A30EF5FE51
:103F8000C207C18313164700A183D18F1183230F6A
:103F9000F5FEA30FE5FE9105E39DA6FCF240624409
:103FA00005618280856613860518938606F083C7AF
:103FB000150003C705008D05A207F58FD98F2310C3
:103FC000F50083C7E5FF110513D7470083C7F5FF49
:103FD0009207D98F231FF5FEE31BB6FC828079710F
:103FE00026D24ECEB7040080856922D44AD052CC66
:103FF00006D62E84938404002A89138A051893898F
:1040000009F08346140083470400CA85139786008D
:10401000337737015D8F8347240091822314E100B9
:104020009207D58F834644002315F100834734005F
:1040300013978600337737015D8F83475400918251
:104040004A859207D58F9440300019042316E10069
:104050002317F1009104EF1020382109E3138AFAA5
:10406000B250225492540259F249624A4561828008
:10407000757122C526C32A84B6840A85B2862E8627
:104080009305000806C7252226868A852285EFE04B
:104090007FDFBA402A449A44496182806FF0BFB002
:1040A0006FF03FB1D1A12DABE1A36F1070073DA61A
:1040B000B5AA138605022148AA86014783C70500D1
:1040C0008906B3D7E740858BB307F04093F71768AD
:1040D000239FF6FE0507E31307FF85054105E31D52
:1040E000B6FC8280856613080502938616D0A14827
:1040F000230005002E8601478317060003430500B1
:104100000906860793870768B3C7D702858BB397DD
:10411000E700B3E767002300F5000507E31E17FD7E
:104120000505C105E316A8FC8280411106C622C41C
:1041300026C22A84AE8415359385042013050418FD
:10414000293D130504302244B24093850440924433
:10415000410121B5411106C622C42A8481371305C5
:1041600004202D3F130504402244B24041013DB7D5
:10417000397106DE814713070002B388F50083C852
:1041800008001308C1003E98230018018507E39634
:10419000E7FE2306C1026C0013062002A306D1022B
:1041A000EFD0CFFBF250216182806FD06FFD39716B
:1041B00006DE814713070002B308F60083C8080033
:1041C0001308C1003E98230018018507E396E7FE17
:1041D0002306D102700093061002EFD0CFFAF250FE
:1041E00021618280B306D04093F6F60F8147639336
:1041F000C7008280B308F5003387F50003C80800C4
:104200000347070085073347E800758F3347E80009
:104210002380E800E9BF0000F32500B8732500B053
:10422000732600B8E39AC5FE82800000130141FCAA
:1042300022C026C24AC44EC652C856CA5ACC5ECE06
:1042400062D066D26AD46ED60ED812DA06DC93013A
:104250003001039405008394250003994500839958
:104260006500039A8500839AA500039BC500839B84
:10427000E500039C0501839C2501039D4501839D69
:10428000650183968501031706008317260003182E
:10429000460083186600831286000313A60083136A
:1042A000C600031EE600831E0601031F2601831FAE
:1042B00046010312660183108601198C9D8C330917
:1042C0000941B3891941330A5A40B38A6A40330B12
:1042D0007B40B38BCB41330CDC41B38CEC41330DD1
:1042E000FD41B38D4D40B386164023108500231148
:1042F00095002312250123133501231445012315AD
:10430000550123166501231775012318850123190B
:104310009501231AA501231BB501231CD5006905AE
:10432000E9056906FD11E39601F203940500839403
:1043300025000399450083996500039A8500839AB7
:10434000A500039BC500839BE500039C05010317A3
:1043500006008317260003184600831866008312A0
:1043600086000313A6008313C600031EE600831E07
:104370000601198C9D8C33090941B3891941330A0F
:104380005A40B38A6A40330B7B40B38BCB41330C2A
:10439000DC412310850023119500231225012313EE
:1043A00035012314450123155501231665012317F3
:1043B000750123188501024492442249B249424AB8
:1043C000D24A624BF24B025C925C225DB25DC251FA
:1043D0005252E2501301C10382800100130141FCDB
:1043E00022C026C24AC44EC652C856CA5ACC5ECE55
:1043F00062D066D26AD46ED60ED812DA06DC930189
:1044000030010394050083942500039945008399A6
:104410006500039A8500839AA500039BC500839BD2
:10442000E500039C0501839C2501039D4501839DB7
:10443000650183968501031706008317260003187C
:10444000460083186600831286000313A6008313B8
:10445000C600031EE600831E0601031F2601831FFC
:10446000460103126601831086013A94BE94429974
:10447000C699169A9A9A1E9BF29B769CFA9C7E9DF0
:10448000929D869623108500231195002312250105
:104490002313350123144501231555012316650106
:1044A000231775012318850123199501231AA501E6
:1044B000231BB501231CD5006905E9056906FD111B
:1044C000E39101F4039405008394250003994500CA
:1044D00083996500039A8500839AA500039BC50014
:1044E000839BE500039C0501031706008317260044
:1044F0000318460083186600831286000313A60083
:104500008313C600031EE600831E06013A94BE9480
:104510004299C699169A9A9A1E9BF29B769C2310F2
:10452000850023119500231225012313350123143F
:10453000450123155501231665012317750123181D
:104540008501024492442249B249424AD24A624B0E
:10455000F24B025C925C225DB25DC2515252E2505B
:104560001301C10382800000B707010D930F0004FF
:10457000839205000393250083130600031E260083
:10458000039F0600B30EEE03338F7202FA9E2320C0
:10459000D501B38EC203330F7302FA9E2322D501D5
:1045A000839245000393650083134600031E660053
:1045B000039F2600B30EEE03338F7202FA9E23246C
:1045C000D501B38EC203330F7302FA9E2326D501A1
:1045D0004105A10521069106FD1FE39B0FF882808E
:1045E000B707010D930F0004839205000393250084
:1045F00083130600031E2600039F0600B30EEE037E
:10460000338F7202FA9E032F0500FA9E2320D501F4
:10461000B38EC203330F7302FA9E032F4500FA9E36
:104620002322D5018392450003936500831346003E
:10463000031E6600039F2600B30EEE03338F720243
:10464000FA9E032F8500FA9E2324D501B38EC20360
:10465000330F7302FA9E032FC500FA9E2326D5015D
:104660004105A10521069106FD1FE39F0FF68280FB
:10467000B707010D37F8A86B13081830930F000423
:10468000839205000393250083130600031E260072
:10469000039F0600B30EEE03338F7202FA9E032FC0
:1046A0000700FA9EB38E0E0393DE0E41A10EB39E59
:1046B000FE022310D501B38EC203330F7302FA9E9C
:1046C000032F4700FA9EB38E0E0393DE0E41A10E18
:1046D000B39EFE022311D50183924500039365002A
:1046E00083134600031E6600039F2600B30EEE03ED
:1046F000338F7202FA9E032F8700FA9EB38E0E0349
:1047000093DE0E41A10EB39EFE022312D501B38E9D
:10471000C203330F7302FA9E032FC700FA9EB38EB3
:104720000E0393DE0E41A10EB39EFE022313D501AC
:104730002105A105210691064107FD1FE3920FF413
:1047400082800000130141FC22C026C24AC44EC62A
:1047500052C856CA5ACC5ECE62D066D26AD46ED6E1
:104760000ED812DA06DC3708010D9301000103149C
:104770000500831425000319450083196500031AF9
:104780008500831AA500031BC500831BE500031CDD
:104790000501831C2501031D4501831D65010316C9
:1047A00085018316A5010317C5018317E50183A2BF
:1047B000050003A3450083A3850003AEC50083AEB7
:1047C000050103AF450183AF8501B30824414A9435
:1047D0003389580213590941210933190903B38850
:1047E0003441CE94B389580293D90941A109B399B0
:1047F0000903B3086A415A9A338B6802135B0B4171
:10480000210B331B0B03B3887A41DE9AB38B68020A
:1048100093DB0B41A10BB39B0B03B308AC416A9C28
:10482000338D7802135D0D41210D331D0D03B388C7
:10483000BC41EE9CB38D780293DD0D41A10DB39D7B
:104840000D03B308E6403A963387C8034187210732
:1048500033170703B388F640BE96B387C803C187F2
:10486000A107B3970703B30844415294338AD8038E
:10487000135A0A41210A331A0A03B3885441D694C1
:10488000B38AD80393DA0A41A10AB39A0A03B30898
:1048900069415A99338BD803135B0B41210B331BAE
:1048A0000B03B3887941DE99B38BD80393DB0B41BB
:1048B000A10BB39B0B03B308CC40329C3386E803B7
:1048C0004186210633160603B388DC40B69CB386C6
:1048D000E803C186A106B3960603B308ED403A9DEE
:1048E0003387E8034187210733170703B388FD4067
:1048F000BE9DB387E803C187A107B3970703B30839
:1049000084416294338CF803135C0C41210C331CFA
:104910000C03B3889441E694B38CF80393DC0C4108
:10492000A10CB39C0C03B308A9416A99338DF80319
:10493000135D0D41210D331D0D03B388B941EE996F
:10494000B38DF80393DD0D41A10DB39D0D03B308A5
:10495000CA40329A3386F80341862106331606038D
:10496000B388DA40B69AB386F803C186A106B39637
:104970000603B308EB403A9B3387F80341872107CE
:1049800033170703B388FB40BE9BB387F803C18787
:10499000A107B39707032310850023119500231265
:1049A0002501231335012314450123155501231631
:1049B0006501231775012318850123199501231A11
:1049C000A501231BB501231CC500231DD500231EF3
:1049D000E500231FF50013050502F105FD11E3981D
:1049E00001D8130505E083A2050003A3450083A3B6
:1049F000850003AEC50083AE050103AF450183AF5B
:104A0000850103A2C501130505029301F000791584
:104A10000314050083140502031905048319050610
:104A2000031A0508831A050A031B050C831B050ED0
:104A3000031C0510831C0512031D0514831D051698
:104A4000031605188316051A0317051C8317051E80
:104A5000B30894402694B3845802C184A104B3944B
:104A60000403B30839414E99B389680293D90941C7
:104A7000A109B3990903B3085A41569AB38A780237
:104A800093DA0A41A10AB39A0A03B3087B415E9BF9
:104A9000B38BC80393DB0B41A10BB39B0B03B30890
:104AA0009C41669CB38CD80393DC0C41A10CB39C55
:104AB0000C03B308BD416E9DB38DE80393DD0D413A
:104AC000A10DB39D0D03B308D6403696B386F80307
:104AD000C186A106B3960603B308F7403E97B38795
:104AE0004802C187A107B397070383A00502B30853
:104AF00024414A9433891802135909412109331971
:104B00000903B3883441CE94B389180293D909417B
:104B1000A109B399090383A04502B3086A415A9ACF
:104B2000338B1802135B0B41210B331B0B03B38830
:104B30007A41DE9AB38B180293DB0B41A10BB39B36
:104B40000B0383A08502B308AC416A9C338D180225
:104B5000135D0D41210D331D0D03B388BC41EE9C47
:104B6000B38D180293DD0D41A10DB39D0D0383A0FC
:104B7000C502B308E6403A963387180241872107F9
:104B800033170703B388F640BE96B3871802C18770
:104B9000A107B397070383A00503B30844415294C8
:104BA000338A1802135A0A41210A331A0A03B388B6
:104BB0005441D694B38A180293DA0A41A10AB39AEF
:104BC0000A03B30869415A99338B1802135B0B41EE
:104BD000210B331B0B03B3887941DE99B38B180289
:104BE00093DB0B41A10BB39B0B0383A04503B308DD
:104BF000CC40329C338618024186210633160603C8
:104C0000B388DC40B69CB3861802C186A106B39671
:104C10000603B308ED403A9D338718024187210708
:104C200033170703B388FD40BE9DB3871802C187C1
:104C3000A107B397070383A08503B3088441629457
:104C4000338C1802135C0C41210C331C0C03B38809
:104C50009441E694B38C180293DC0C41A10CB39CF4
:104C60000C03B308A9416A99338D1802135D0D41F5
:104C7000210D331D0D03B388B941EE99B38D180290
:104C800093DD0D41A10DB39D0D03B308CA40329AC7
:104C9000338618024186210633160603B388DA40AC
:104CA000B69AB3861802C186A106B3960603B30866
:104CB000EB403A9B338718024187210733170703DC
:104CC000B388FB40BE9BB3871802C187A107B39787
:104CD000070383A0C5033304140241842104331461
:104CE0000403B3841402C184A104B39404033309FC
:104CF000190213590941210933190903B38919020A
:104D000093D90941A109B3990903330A1A02135A25
:104D10000A41210A331A0A03B38A1A0293DA0A41B2
:104D2000A10AB39A0A03330B1B02135B0B41210B3D
:104D3000331B0B03B38B1B0293DB0B41A10BB39B08
:104D40000B03231085002310950223102505231043
:104D50003507231045092310550B2310650D23102B
:104D6000750F23108511231095132310A5152310FB
:104D7000B5172310C5182310D51A2310E51C2310CE
:104D8000F51EFD11E3D501C8024492442249B249FF
:104D9000424AD24A624BF24B025C925C225DB25DA7
:104DA000C2515252E2501301C10382800000000040
:104DB000130141FC22C026C24AC44EC652C856CA7C
:104DC0005ACC5ECE62D066D26AD46ED60ED812DAD3
:104DD00006DC3708010D130505029301F00083A2DC
:104DE000050003A3450083A3850003AEC50083AE81
:104DF000050103AF450183AF850103A2C50183A06F
:104E0000050279150314050083140502031905042E
:104E100083190506031A0508831A050A031B050CE6
:104E2000831B050E031C0510831C0512031D0514AE
:104E3000831D0516031605188316051A0317051C8E
:104E40008317051EB3085C0293D80841A108B398E4
:104E50000803330C14414694B3885C0293D808418C
:104E6000A108B3980803B38C1441C694B3085D023B
:104E700093D80841A108B3980803330D1941469906
:104E8000B3885D0293D80841A108B3980803B38D95
:104E90001941C699B308560293D80841A108B3989E
:104EA000080333061A41469AB388560293D808413C
:104EB000A108B3980803B3861A41C69AB3085702EB
:104EC00093D80841A108B398080333071B41469BB8
:104ED000B388570293D80841A108B3980803B38751
:104EE0001B41C69BB3086A0293D80841A108B39836
:104EF0000803330A14414694B3886A0293D80841E0
:104F0000A108B3980803B38A1441C694B3086B028E
:104F100093D80841A108B3980803330B1941469967
:104F2000B3886B0293D80841A108B3980803B38BE8
:104F30001941C699B308760293D80841A108B398DD
:104F4000080333061C41469CB388760293D8084177
:104F5000A108B3980803B3861C41C69CB308770226
:104F600093D80841A108B398080333071D41469D13
:104F7000B388770293D80841A108B3980803B38790
:104F80001D41C69DB308C90393D80841A108B39831
:104F90000803330914414694B388C90393D80841E0
:104FA000A108B3980803B3891441C694B308DB037E
:104FB00093D80841A108B3980803330B1A41469AC5
:104FC000B388DB0393D80841A108B3980803B38BD7
:104FD0001A41C69AB308ED0393D80841A108B398C3
:104FE0000803330D1C41469CB388ED0393D8084158
:104FF000A108B3980803B38D1C41C69CB308F703FE
:1050000093D80841A108B398080333071641469680
:10501000B388F70393D80841A108B3980803B3876E
:105020001641C696B388440293D80841A108B398A4
:105030000803B30414414694B388190293D8084175
:10504000A108B3980803B3091941469983A84502FA
:10505000B3881A0393D80841A108B3980803B30A88
:105060001A41469A83A88502B3881B0393D8084146
:10507000A108B3980803B30B1B41469B83A8C50244
:10508000B3881C0393D80841A108B3980803B30C54
:105090001C41469C83A80503B3881D0393D808418F
:1050A000A108B3980803B30D1D41469D83A845038D
:1050B000B388160393D80841A108B3980803B30630
:1050C0001641469683A88503B388170393D80841F1
:1050D000A108B3980803B30717414697231085002A
:1050E00023109502231025052310350723104509A9
:1050F0002310550B2310650D2310750F23108511F8
:10510000231095132310A5152310B5172310C518C8
:105110002310D51A2310E51C2310F51EFD11E3D230
:1051200001CE9385C5039301000103140500831488
:1051300025000319450083196500031A8500831AA9
:10514000A500031BC500831BE500031C0501831C90
:105150002501031D4501831D650103168501831685
:10516000A5010317C5018317E50183A2050003A369
:10517000450083A3850003AEC50083AE050103AFE0
:10518000450183AF8501B3085C0293D80841A108AB
:10519000B3980803330C14414694B3885C0293D847
:1051A0000841A108B3980803B38C1441C694B3080E
:1051B0005D0293D80841A108B3980803330D194143
:1051C0004699B3885D0293D80841A108B3980803B3
:1051D000B38D1941C699B308560293D80841A10866
:1051E000B398080333061A41469AB388560293D8F7
:1051F0000841A108B3980803B3861A41C69AB308B8
:10520000570293D80841A108B398080333071B41FC
:10521000469BB388570293D80841A108B398080366
:10522000B3871B41C69BB3086A0293D80841A10803
:10523000B3980803330A14414694B3886A0293D89A
:105240000841A108B3980803B38A1441C694B3086F
:105250006B0293D80841A108B3980803330B194196
:105260004699B3886B0293D80841A108B398080304
:10527000B38B1941C699B308760293D80841A108A7
:10528000B398080333061C41469CB388760293D832
:105290000841A108B3980803B3861C41C69CB30813
:1052A000770293D80841A108B398080333071D413A
:1052B000469DB388770293D80841A108B3980803A4
:1052C000B3871D41C69DB308C90393D80841A108FF
:1052D000B3980803330914414694B388C90393D89B
:1052E0000841A108B3980803B3891441C694B308D0
:1052F000DB0393D80841A108B3980803330B1A4184
:10530000469AB388DB0393D80841A108B3980803F1
:10531000B38B1A41C69AB308ED0393D80841A1088C
:10532000B3980803330D1C41469CB388ED0393D812
:105330000841A108B3980803B38D1C41C69CB3086B
:10534000F70393D80841A108B3980803330716411F
:105350004696B388F70393D80841A108B398080389
:10536000B3871641C696231085002311950023129A
:105370002501231335012314450123155501231657
:105380006501231775012318850123199501231A37
:10539000A501231BB501231CC500231DD500231E19
:1053A000E500231FF50013050502F105FD11E39E3D
:1053B00001D6024492442249B249424AD24A624B3F
:1053C000F24B025C925C225DB25DC2515252E250DD
:1053D0001301C10382800000B702010D37F3A86BEF
:1053E0001303133003970500839725000318060065
:1053F00083182600B383D70293D30341A103B39349
:105400005302B3831303330E0703F293B383630290
:1054100093D30341A103B393530223107500B30345
:105420001703338E0703F293B383630293D30341CD
:10543000A103B393530223117500B306D040039721
:105440004500839765000318460083186600B38300
:10545000D70293D30341A103B3935302B38313033E
:10546000330E0703F293B383630293D30341A10383
:10547000B393530223127500B3031703338E07034C
:10548000F293B383630293D30341A103B393530213
:105490002313750082800100B702010D37F3A86B5A
:1054A00013031330039705008397250003180600A4
:1054B00083182600831E0500031F2500B383D7022F
:1054C00093D30341A103B3935302B3831303330E66
:1054D0000703F293B383630293D30341A103B3930E
:1054E00053029E9E2310D501B3031703338E070387
:1054F000F293B383630293D30341A103B3935302A3
:105500001E9F2311E501B306D04003974500839702
:1055100065000318460083186600831E4500031FBC
:105520006500B383D70293D30341A103B39353021E
:10553000B3831303330E0703F293B383630293D34E
:105540000341A103B39353029E9E2312D501B303DB
:105550001703338E0703F293B383630293D303419C
:10556000A103B39353021E9F2313E5018280000021
:10557000B707010D8312060003132600839306006C
:10558000039E2600B30EE30293DE0E41A10EB39EEE
:10559000FE022390D501B38ECE03338F7202FA9EA2
:1055A0002320D501B38EC203330F7302FA9E232248
:1055B000D5013307E040831246000313660083934E
:1055C0004600039E6600B30EE30293DE0E41A10E79
:1055D000B39EFE022391D501B38ECE03338F7202A8
:1055E000FA9E2324D501B38EC203330F7302FA9EB1
:1055F0002326D50182800100B707010D8312060022
:105600000313260083930600039E2600B30EE302D5
:1056100093DE0E41A10EB39EFE022390D501B38E00
:10562000CE03338F7202FA9E032F0500FA9E2320C9
:10563000D501B38EC203330F7302FA9E032F4500C8
:10564000FA9E2322D5013307E0408312460003135C
:10565000660083934600039E6600B30EE30293DE6A
:105660000E41A10EB39EFE022391D501B38ECE034F
:10567000338F7202FA9E032F8500FA9E2324D501F0
:10568000B38EC203330F7302FA9E032FC500FA9E36
:105690002326D501828001003708010DB7F8A86BD9
:1056A0009388183083920600039326008313070023
:1056B000031E2700B30EF30293DE0E41A10EB39E2C
:1056C0000E032310D601B38ECE03338F7202FA9EDF
:1056D00003AF0500FA9EB38E1E0393DE0E41A10EAA
:1056E000B39E0E032310D501B38EC203330F730292
:1056F000FA9E03AF4500FA9EB38E1E0393DE0E4161
:10570000A10EB39E0E032311D501B307F04083927F
:1057100046000393660083134700031E6700B30E21
:10572000F30293DE0E41A10EB39E0E032311D601A8
:10573000B38ECE03338F7202FA9E03AF8500FA9EBA
:10574000B38E1E0393DE0E41A10EB39E0E032312F1
:10575000D501B38EC203330F7302FA9E03AFC500A7
:10576000FA9EB38E1E0393DE0E41A10EB39E0E036E
:105770002313D50182800100B707010D83120600B3
:105780000313260083930600039E2600039F050053
:10579000B30EEE03338F7202FA9E2320D501B38E2F
:1057A000C203330F7302FA9E2322D50183124600EF
:1057B0000313660083934600039E6600039F250043
:1057C000B30EEE03338F7202FA9E2324D501B38EFB
:1057D000C203330F7302FA9E2326D5018280010093
:1057E000B707010D831206000313260083930600FA
:1057F000039E2600039F0500B30EEE03338F720253
:10580000FA9E032F0500FA9E2320D501B38EC20312
:10581000330F7302FA9E032F4500FA9E2322D5010F
:10582000831246000313660083934600039E6600BE
:10583000039F2500B30EEE03338F7202FA9E032FEF
:105840008500FA9E2324D501B38EC203330F730261
:10585000FA9E032FC500FA9E2326D50182800100FF
:10586000B707010D37F8A86B1308183083920600AC
:105870000393260083130700031E2700031F06005F
:10588000B30EEE03338F7202FA9E03AF0500FA9E49
:10589000B38E0E0393DE0E41A10EB39EFE022310C3
:1058A000D501B38EC203330F7302FA9E03AF4500D6
:1058B000FA9EB38E0E0393DE0E41A10EB39EFE023E
:1058C0002311D5018392460003936600831347009A
:1058D000031E6700031F2600B30EEE03338F720210
:1058E000FA9E03AF8500FA9EB38E0E0393DE0E413F
:1058F000A10EB39EFE022312D501B38EC203330F55
:105900007302FA9E03AFC500FA9EB38E0E0393DEB8
:105910000E41A10EB39EFE022313D501828000002A
:10592000130141FC22C026C24AC44EC652C856CA00
:105930005ACC5ECE62D066D26AD46ED60ED812DA57
:1059400006DCB75500009385F5EB37120000130213
:1059500012D09301A000031405008314250003193D
:10596000450083196500031A8500831AA500031BEF
:10597000C500831BE500031C0501831C2501031DD5
:105980004501831D6501031685018316A5010317D3
:10599000C5018317E5010318050283182502831248
:1059A00045020313650283138502031EA502831EAD
:1059B000C502031FE502831F0503B300B40293D0A1
:1059C000A041B380400233041440B380B40293D0AA
:1059D000A041B3804002B3841440B300B90293D015
:1059E000A041B380400233091940B380B90293D07B
:1059F000A041B3804002B3891940B300BA0293D0EA
:105A0000A041B3804002330A1A40B380BA0293D057
:105A1000A041B3804002B38A1A40B300BB0293D0C6
:105A2000A041B3804002330B1B40B380BB0293D034
:105A3000A041B3804002B38B1B40B300BC0293D0A3
:105A4000A041B3804002330C1C40B380BC0293D011
:105A5000A041B3804002B38C1C40B300BD0293D080
:105A6000A041B3804002330D1D40B380BD0293D0EE
:105A7000A041B3804002B38D1D40B300B60293D065
:105A8000A041B380400233061640B380B60293D0E3
:105A9000A041B3804002B3861640B300B70293D052
:105AA000A041B380400233071740B380B70293D0C0
:105AB000A041B3804002B3871740B300B80293D02F
:105AC000A041B380400233081840B380B80293D09D
:105AD000A041B3804002B3881840B380B20293D093
:105AE000A041B3804002B3821240B300B30293D00E
